:100000000C945D000C9485000C9485000C94850084
:100010000C9485000C9485000C9485000C9485004C
:100020000C9485000C9485000C9485000C9485003C
:100030000C9485000C9485000C9485000C9485002C
:100040000C948C020C9485000C9485000C94850013
:100050000C9485000C9485000C9485000C9485000C
:100060000C9485000C94850000000008000201003B
:100070000003040700000000000000000000000072
:10008000250028002B0000000000240027002A0083
:10009000040404040404040402020202020203032E
:1000A0000303030301020408102040800102040836
:1000B0001020010204081020AB0311241FBECFEF53
:1000C000D8E0DEBFCDBF11E0A0E0B1E0E6EEF7E0A2
:1000D00002C005900D92AC31B107D9F721E0ACE137
:1000E000B1E001C01D92AF33B207E1F710E0CDE5FA
:1000F000D0E004C02197FE010E94EB03CC35D1076C
:10010000C9F70E94D6020C94F1030C94000090E011
:10011000FC01EC55FF4F249180579F4FFC018491C7
:10012000882399F090E0880F991FFC01EA57FF4F50
:10013000A591B491FC01E458FF4F859194918FB73C
:10014000F894EC91E22BEC938FBF089590E0FC01C2
:10015000E859FF4F2491FC01EC55FF4F3491FC010D
:10016000E057FF4FE491EE23C9F0222339F023300A
:1001700001F1A8F4213019F1223029F1F0E0EE0F5D
:10018000FF1FE458FF4FA591B4918FB7F894EC91FD
:10019000611126C030953E233C938FBF08952730D0
:1001A000A9F02830C9F0243049F7809180008F7D74
:1001B00003C0809180008F7780938000DFCF84B56B
:1001C0008F7784BDDBCF84B58F7DFBCF8091B0006E
:1001D0008F778093B000D2CF8091B0008F7DF9CF20
:1001E0003E2BDACF3FB7F894809123019091240100
:1001F000A0912501B091260126B5A89B05C02F3FEF
:1002000019F00196A11DB11D3FBFBA2FA92F982F3C
:100210008827BC01CD01620F711D811D911D42E037
:10022000660F771F881F991F4A95D1F70895AF92DF
:10023000BF92CF92DF92EF92FF920F931F93CF93D3
:10024000DF936C017B018B01040F151FEB015E0135
:10025000AE18BF08C017D10759F06991D601ED91CA
:10026000FC910190F081E02DC6010995892B79F769
:10027000C501DF91CF911F910F91FF90EF90DF901B
:10028000CF90BF90AF900895089590E080E00895DA
:10029000CF93DF93EC0160E08E810E94A60061E0C5
:1002A0008E810E94A60060E08E810E94A6008BE8ED
:1002B00091E00197F1F7DF91CF910895CF92DF920E
:1002C000EF92FF920F931F93CF93DF936C017C010A
:1002D00087E0E80EF11CD0E0C0E0062F10E0B80186
:1002E0000C2E02C0759567950A94E2F76170F701CC
:1002F00081917F010E94A6002196C430D10579F733
:10030000C601DF91CF911F910F91FF90EF90DF9089
:10031000CF900C944801CF92DF92EF92FF920F930F
:100320001F93CF93DF93EC01F62E642F8C810E94F4
:10033000A6008D818F3F19F060E00E94A6000F2D6E
:1003400010E08F8584FF25C06E0187E0C80ED11CA8
:10035000F12CE12CB8010E2C02C0759567950A941A
:10036000E2F76170F60181916F010E94A600FFEF34
:10037000EF1AFF0A88E0E816F10461F7CE01DF9179
:10038000CF911F910F91FF90EF90DF90CF900C9441
:100390004801B80184E0759567958A95E1F7CE012B
:1003A0000E945E016F2DCE01DF91CF911F910F91C1
:1003B000FF90EF90DF90CF900C945E0140E0682FAB
:1003C00087E291E00C948B01CF93DF93823029F484
:1003D0009091360198609093360180933A01109283
:1003E0003B0180E480933C0180E180933D0180E506
:1003F00080933E0180912B010E94870080912C0107
:100400008F3F11F00E94870080912D010E9487008C
:10041000C7E2D1E09E01275231408091360184FD30
:100420000AC084E090E02196281739073CF48E81B9
:100430000E948700EFCF88E090E0F5CF8BE39DE04E
:100440000197F1F760E080912B010E94A60060E027
:1004500080912D010E94A60080912C018F3F19F000
:1004600060E00E94A6008091360184FD39C063E0FF
:1004700087E291E00E945E01CBE4D6E4CE010197D1
:10048000F1F763E087E291E00E945E012197F1F7C6
:1004900063E087E291E00E945E0183E592E00197CC
:1004A000F1F762E087E291E00E945E0180913601FF
:1004B00080620E94DE0184E0809337018CE00E941C
:1004C000DE0181E00E94DE018BE39FE10197F1F7FD
:1004D00082E08093380186E0DF91CF910C94DE01B9
:1004E00080620E94DE018BE496E40197F1F780912F
:1004F000360180620E94DE0183E592E00197F1F708
:100500008091360180620E94DE01D0CF41E00E94DE
:100510008B0181E090E008951F920F920FB60F9229
:1005200011242F933F938F939F93AF93BF93809109
:100530001F0190912001A0912101B09122013091E1
:100540001E0123E0230F2D3758F50196A11DB11D83
:1005500020931E0180931F0190932001A0932101FD
:10056000B09322018091230190912401A091250153
:10057000B09126010196A11DB11D80932301909396
:100580002401A0932501B0932601BF91AF919F91C3
:100590008F913F912F910F900FBE0F901F90189544
:1005A00026E8230F0296A11DB11DD2CFCF93DF9372
:1005B000CDB7DEB7A1970FB6F894DEBF0FBECDBFA3
:1005C000789484B5826084BD84B5816084BD85B52E
:1005D000826085BD85B5816085BD80916E0081603A
:1005E00080936E00109281008091810082608093E0
:1005F00081008091810081608093810080918000E2
:100600008160809380008091B10084608093B1000C
:100610008091B00081608093B00080917A00846006
:1006200080937A0080917A00826080937A00809132
:100630007A00816080937A0080917A00806880934C
:100640007A001092C10082E00E94E401E1E0809112
:100650003A018111E0E0E195F0E0E95DFE4F848927
:1006600080680E94DE014EE050E06CE071E087E2BD
:1006700091E00E9417019AE0892E912CA12CB12CB7
:1006800020E0222E20E0322EE0913A01E23008F004
:1006900060C0E150F0E0E95DFE4F848980680E940F
:1006A000DE0120911C0130911D01C901019690933A
:1006B0001D0180931C0150E040E019A28E010F5DE6
:1006C0001F4FCA01B901A50194010E94C903605DD1
:1006D000F80162938F01211531054105510589F714
:1006E000309761F001900020E9F73197AF01401B8E
:1006F000510BB80187E291E00E9417010E94F200BD
:100700006B017C018AEF482E512C612C712C0E94C8
:10071000F2006C197D098E099F09683E73408105BE
:100720009105A8F3F1E04F1A51086108710828EE0D
:10073000C20E23E0D21EE11CF11C411451046104DD
:10074000710429F72114310409F49ECF0E9400009E
:100750009BCFE1E09FCFE7E2F1E01382128284E0D9
:1007600091E0918380838CE084838FEF85838BE09D
:10077000868385E0878384E0808783E0818782E0C9
:1007800082871386148615861686178681E00C9458
:10079000E401A1E21A2EAA1BBB1BFD010DC0AA1F7A
:1007A000BB1FEE1FFF1FA217B307E407F50720F0DA
:1007B000A21BB30BE40BF50B661F771F881F991F55
:1007C0001A9469F760957095809590959B01AC019E
:1007D000BD01CF010895EE0FFF1F0590F491E02DAC
:0607E0000994F894FFCF1C
:1007E600000000008602170145014401436F756E43
:0C07F6007465722056616C75653A000055
:00000001FF
